:100000000C9446000C945D000C945D000C945D0013
:100010000C945D000C945D000C945D000C945D00EC
:100020000C945D000C945D000C945D000C945D00DC
:100030000C945D000C945D000C945D000C945D00CC
:100040000C945D000C945D000C945D000C945D00BC
:100050000C945D000C945D000C945D000C945D00AC
:100060000C945D000C945D000C945D000C945D009C
:100070000C945D000C945D000C945D000C945D008C
:100080000C945D000C945D000C945D0011241FBE67
:10009000CFEFD0E4DEBFCDBF11E0A0E0B1E0E2E2FF
:1000A000F1E000E00BBF02C007900D92AE30B10747
:1000B000D9F70E9470000C948F000C940000CF932D
:1000C000C82F8A3019F48DE00E945F008091C00033
:1000D00085FFFCCFC093C60080E090E0CF910895EB
:1000E00011B88FEF82B987B915B820B183B146B185
:1000F000820F840F8D3810F490E001C091E030E061
:10010000241B3109A90122F444275527421B530B14
:10011000413551050CF09260892B8BB9E6CFF894EC
:02012000FFCF0F
:0E01220000000002000000005F00000000006E
:00000001FF
