:100000000C9446000C945D000C945D000C945D0013
:100010000C945D000C945D000C945D000C945D00EC
:100020000C945D000C945D000C945D000C945D00DC
:100030000C945D000C945D000C945D000C945D00CC
:100040000C945D000C945D000C945D000C945D00BC
:100050000C945D000C945D000C945D000C945D00AC
:100060000C945D000C945D000C945D000C945D009C
:100070000C945D000C945D000C945D000C945D008C
:100080000C945D000C945D000C945D0011241FBE67
:10009000CFEFD0E4DEBFCDBF11E0A0E0B1E0E8E3F8
:1000A000F1E000E00BBF02C007900D92AE30B10747
:1000B000D9F70E9470000C949A000C940000CF9322
:1000C000C82F8A3019F48DE00E945F008091C00033
:1000D00085FFFCCFC093C60080E090E0CF910895EB
:1000E00011B885E082B914B815B88FEF87B918B880
:1000F00020E060B133B170E0E0E017C0462F50E07F
:10010000022E02C0559547950A94E2F7832F90E09E
:10011000022E02C0959587950A94E2F7817040FD02
:10012000EF5F813009F47F5F2F5F293038F37E0F56
:0801300078B9DFCFF894FFCF8E
:0E01380000000002000000005F000000000058
:00000001FF
