:100000000C9446000C945D000C945D000C945D0013
:100010000C945D000C945D000C945D000C945D00EC
:100020000C945D000C945D000C945D000C945D00DC
:100030000C945D000C945D000C945D000C945D00CC
:100040000C945D000C945D000C945D000C945D00BC
:100050000C945D000C945D000C945D000C945D00AC
:100060000C945D000C945D000C945D000C945D009C
:100070000C945D000C945D000C945D000C945D008C
:100080000C945D000C945D000C945D0011241FBE67
:10009000CFEFD0E4DEBFCDBF11E0A0E0B1E0E8E1FA
:1000A000F1E000E00BBF02C007900D92AE30B10747
:1000B000D9F70E9470000C948A000C940000CF9332
:1000C000C82F8A3019F48DE00E945F008091C00033
:1000D00085FFFCCFC093C60080E090E0CF910895EB
:1000E00011B88FEF82B987B915B880B1382F317048
:1000F00080B120B190B18695817022FB222720F932
:1001000093FB992790F9830F820F890F94E0981B36
:0801100098B9EBCFF894FFCF82
:0E01180000000002000000005F000000000078
:00000001FF
